{
  "contractName": "CST",
  "abi": [
    {
      "constant": true,
      "inputs": [
        {
          "name": "",
          "type": "uint256"
        }
      ],
      "name": "task",
      "outputs": [
        {
          "name": "taskID",
          "type": "address"
        },
        {
          "name": "predicate",
          "type": "uint256"
        },
        {
          "name": "hashvc",
          "type": "uint256"
        },
        {
          "name": "enct",
          "type": "uint256"
        },
        {
          "name": "reward",
          "type": "uint256"
        },
        {
          "name": "pkt",
          "type": "uint256"
        },
        {
          "name": "enck",
          "type": "uint256"
        },
        {
          "name": "encr",
          "type": "uint256"
        },
        {
          "name": "state",
          "type": "bool"
        }
      ],
      "payable": false,
      "stateMutability": "view",
      "type": "function"
    },
    {
      "constant": true,
      "inputs": [],
      "name": "random",
      "outputs": [
        {
          "name": "",
          "type": "uint256"
        }
      ],
      "payable": false,
      "stateMutability": "view",
      "type": "function"
    },
    {
      "constant": true,
      "inputs": [],
      "name": "owner",
      "outputs": [
        {
          "name": "",
          "type": "address"
        }
      ],
      "payable": false,
      "stateMutability": "view",
      "type": "function"
    },
    {
      "constant": true,
      "inputs": [],
      "name": "SGX",
      "outputs": [
        {
          "name": "",
          "type": "address"
        }
      ],
      "payable": false,
      "stateMutability": "view",
      "type": "function"
    },
    {
      "constant": true,
      "inputs": [
        {
          "name": "",
          "type": "uint256"
        }
      ],
      "name": "tmp",
      "outputs": [
        {
          "name": "taskID",
          "type": "address"
        },
        {
          "name": "predicate",
          "type": "uint256"
        },
        {
          "name": "hashvc",
          "type": "uint256"
        },
        {
          "name": "enct",
          "type": "uint256"
        },
        {
          "name": "reward",
          "type": "uint256"
        },
        {
          "name": "pkt",
          "type": "uint256"
        },
        {
          "name": "enck",
          "type": "uint256"
        },
        {
          "name": "encr",
          "type": "uint256"
        },
        {
          "name": "state",
          "type": "bool"
        }
      ],
      "payable": false,
      "stateMutability": "view",
      "type": "function"
    },
    {
      "inputs": [],
      "payable": false,
      "stateMutability": "nonpayable",
      "type": "constructor"
    },
    {
      "payable": true,
      "stateMutability": "payable",
      "type": "fallback"
    },
    {
      "anonymous": false,
      "inputs": [
        {
          "indexed": true,
          "name": "requester",
          "type": "address"
        }
      ],
      "name": "_uploadTask",
      "type": "event"
    },
    {
      "anonymous": false,
      "inputs": [
        {
          "indexed": true,
          "name": "requester",
          "type": "address"
        }
      ],
      "name": "_uploadPK",
      "type": "event"
    },
    {
      "anonymous": false,
      "inputs": [
        {
          "indexed": true,
          "name": "requester",
          "type": "address"
        }
      ],
      "name": "_getTask",
      "type": "event"
    },
    {
      "anonymous": false,
      "inputs": [
        {
          "indexed": true,
          "name": "requester",
          "type": "address"
        }
      ],
      "name": "_executeTask",
      "type": "event"
    },
    {
      "anonymous": false,
      "inputs": [
        {
          "indexed": true,
          "name": "requester",
          "type": "address"
        }
      ],
      "name": "_noFind",
      "type": "event"
    },
    {
      "constant": false,
      "inputs": [
        {
          "name": "hashVerifyCode",
          "type": "uint256"
        },
        {
          "name": "predicate",
          "type": "uint256"
        },
        {
          "name": "encTask",
          "type": "uint256"
        },
        {
          "name": "taskPrice",
          "type": "uint64"
        }
      ],
      "name": "uploadTask",
      "outputs": [
        {
          "name": "",
          "type": "address"
        }
      ],
      "payable": true,
      "stateMutability": "payable",
      "type": "function"
    },
    {
      "constant": false,
      "inputs": [
        {
          "name": "taskID",
          "type": "address"
        },
        {
          "name": "publicKey",
          "type": "uint256"
        },
        {
          "name": "encKey",
          "type": "uint256"
        }
      ],
      "name": "uploadPK",
      "outputs": [
        {
          "name": "",
          "type": "bool"
        }
      ],
      "payable": false,
      "stateMutability": "nonpayable",
      "type": "function"
    },
    {
      "constant": false,
      "inputs": [
        {
          "name": "attribute",
          "type": "uint256"
        }
      ],
      "name": "getTask",
      "outputs": [],
      "payable": false,
      "stateMutability": "nonpayable",
      "type": "function"
    },
    {
      "constant": false,
      "inputs": [
        {
          "name": "taskID",
          "type": "address"
        },
        {
          "name": "hash",
          "type": "bytes32"
        },
        {
          "name": "v",
          "type": "uint8"
        },
        {
          "name": "r",
          "type": "bytes32"
        },
        {
          "name": "s",
          "type": "bytes32"
        },
        {
          "name": "encResult",
          "type": "uint256"
        }
      ],
      "name": "executeTask",
      "outputs": [
        {
          "name": "",
          "type": "bool"
        }
      ],
      "payable": false,
      "stateMutability": "nonpayable",
      "type": "function"
    },
    {
      "constant": true,
      "inputs": [
        {
          "name": "taskID",
          "type": "address"
        }
      ],
      "name": "getHC",
      "outputs": [
        {
          "name": "",
          "type": "uint256"
        }
      ],
      "payable": false,
      "stateMutability": "view",
      "type": "function"
    },
    {
      "constant": true,
      "inputs": [
        {
          "name": "taskID",
          "type": "address"
        }
      ],
      "name": "getResult",
      "outputs": [
        {
          "name": "",
          "type": "uint256"
        }
      ],
      "payable": false,
      "stateMutability": "view",
      "type": "function"
    },
    {
      "constant": true,
      "inputs": [
        {
          "name": "taskID",
          "type": "address"
        }
      ],
      "name": "getK",
      "outputs": [
        {
          "name": "",
          "type": "uint256"
        }
      ],
      "payable": false,
      "stateMutability": "view",
      "type": "function"
    },
    {
      "constant": true,
      "inputs": [],
      "name": "getTmp",
      "outputs": [
        {
          "name": "",
          "type": "address"
        }
      ],
      "payable": false,
      "stateMutability": "view",
      "type": "function"
    },
    {
      "constant": true,
      "inputs": [],
      "name": "getLength",
      "outputs": [
        {
          "name": "",
          "type": "uint256"
        }
      ],
      "payable": false,
      "stateMutability": "view",
      "type": "function"
    }
  ],
  "bytecode": "0x608060405234801561001057600080fd5b5033600d60006101000a81548173ffffffffffffffffffffffffffffffffffffffff021916908373ffffffffffffffffffffffffffffffffffffffff160217905550732facf1a9a6b73630fd80153280085a1525f44b9e600b60006101000a81548173ffffffffffffffffffffffffffffffffffffffff021916908373ffffffffffffffffffffffffffffffffffffffff1602179055506112f0806100b66000396000f3006080604052600436106100d0576000357c0100000000000000000000000000000000000000000000000000000000900463ffffffff16806317751a21146100d55780631d65e77e1461017e5780631e0f6725146101ab5780632f68a93114610202578063380822f31461029e578063446a37e0146102f55780635ec01e4d1461034c5780638da5cb5b1461037757806399dac893146103ce578063b17327ca14610425578063b80ebb84146104ad578063be1c766b14610504578063e72da8b61461052f578063f39ecdb8146105d8575b600080fd5b3480156100e157600080fd5b5061010060048036038101908080359060200190929190505050610647565b604051808a73ffffffffffffffffffffffffffffffffffffffff1673ffffffffffffffffffffffffffffffffffffffff16815260200189815260200188815260200187815260200186815260200185815260200184815260200183815260200182151515158152602001995050505050505050505060405180910390f35b34801561018a57600080fd5b506101a9600480360381019080803590602001909291905050506106d1565b005b3480156101b757600080fd5b506101ec600480360381019080803573ffffffffffffffffffffffffffffffffffffffff1690602001909291905050506108bd565b6040518082815260200191505060405180910390f35b34801561020e57600080fd5b50610284600480360381019080803573ffffffffffffffffffffffffffffffffffffffff1690602001909291908035600019169060200190929190803560ff1690602001909291908035600019169060200190929190803560001916906020019092919080359060200190929190505050610982565b604051808215151515815260200191505060405180910390f35b3480156102aa57600080fd5b506102df600480360381019080803573ffffffffffffffffffffffffffffffffffffffff169060200190929190505050610c9e565b6040518082815260200191505060405180910390f35b34801561030157600080fd5b50610336600480360381019080803573ffffffffffffffffffffffffffffffffffffffff169060200190929190505050610d63565b6040518082815260200191505060405180910390f35b34801561035857600080fd5b50610361610e28565b6040518082815260200191505060405180910390f35b34801561038357600080fd5b5061038c610e2e565b604051808273ffffffffffffffffffffffffffffffffffffffff1673ffffffffffffffffffffffffffffffffffffffff16815260200191505060405180910390f35b3480156103da57600080fd5b506103e3610e54565b604051808273ffffffffffffffffffffffffffffffffffffffff1673ffffffffffffffffffffffffffffffffffffffff16815260200191505060405180910390f35b61046b600480360381019080803590602001909291908035906020019092919080359060200190929190803567ffffffffffffffff169060200190929190505050610e7a565b604051808273ffffffffffffffffffffffffffffffffffffffff1673ffffffffffffffffffffffffffffffffffffffff16815260200191505060405180910390f35b3480156104b957600080fd5b506104c261108e565b604051808273ffffffffffffffffffffffffffffffffffffffff1673ffffffffffffffffffffffffffffffffffffffff16815260200191505060405180910390f35b34801561051057600080fd5b506105196110bb565b6040518082815260200191505060405180910390f35b34801561053b57600080fd5b5061055a600480360381019080803590602001909291905050506110c7565b604051808a73ffffffffffffffffffffffffffffffffffffffff1673ffffffffffffffffffffffffffffffffffffffff16815260200189815260200188815260200187815260200186815260200185815260200184815260200183815260200182151515158152602001995050505050505050505060405180910390f35b3480156105e457600080fd5b5061062d600480360381019080803573ffffffffffffffffffffffffffffffffffffffff1690602001909291908035906020019092919080359060200190929190505050611151565b604051808215151515815260200191505060405180910390f35b60008181548110151561065657fe5b90600052602060002090600902016000915090508060000160009054906101000a900473ffffffffffffffffffffffffffffffffffffffff16908060010154908060020154908060030154908060040154908060050154908060060154908060070154908060080160009054906101000a900460ff16905089565b60008090505b60008054905081101561087657600015156000828154811015156106f757fe5b906000526020600020906009020160080160009054906101000a900460ff16151514801561074457508160008281548110151561073057fe5b906000526020600020906009020160010154145b1561087157600160008281548110151561075a57fe5b9060005260206000209060090201908060018154018082558091505090600182039060005260206000209060090201600090919290919091506000820160009054906101000a900473ffffffffffffffffffffffffffffffffffffffff168160000160006101000a81548173ffffffffffffffffffffffffffffffffffffffff021916908373ffffffffffffffffffffffffffffffffffffffff160217905550600182015481600101556002820154816002015560038201548160030155600482015481600401556005820154816005015560068201548160060155600782015481600701556008820160009054906101000a900460ff168160080160006101000a81548160ff0219169083151502179055505050505b6106d7565b3373ffffffffffffffffffffffffffffffffffffffff167f4dae2e22e54eeed70657635b7259499cad37343d380ec351e7a2cc7dbee0234260405160405180910390a25050565b600080600080915060008054905082101561097a576000828154811015156108e157fe5b906000526020600020906009020160000160009054906101000a900473ffffffffffffffffffffffffffffffffffffffff1673ffffffffffffffffffffffffffffffffffffffff168473ffffffffffffffffffffffffffffffffffffffff1614156109715781905060008181548110151561095857fe5b906000526020600020906009020160060154925061097b565b6000925061097b565b5b5050919050565b600080600060606000806040805190810160405280601c81526020017f19457468657265756d205369676e6564204d6573736167653a0a3332000000008152509250828b6040518083805190602001908083835b6020831015156109fb57805182526020820191506020810190506020830392506109d6565b6001836020036101000a038019825116818451168082178552505050505050905001826000191660001916815260200192505050604051809103902091506001828b8b8b604051600081526020016040526040518085600019166000191681526020018460ff1660ff1681526020018360001916600019168152602001826000191660001916815260200194505050505060206040516020810390808403906000865af1158015610ab0573d6000803e3d6000fd5b50505060206040510351905060009450600080549050851015610c8e57600085815481101515610adc57fe5b906000526020600020906009020160000160009054906101000a900473ffffffffffffffffffffffffffffffffffffffff1673ffffffffffffffffffffffffffffffffffffffff168c73ffffffffffffffffffffffffffffffffffffffff161415610c8557849350600b60009054906101000a900473ffffffffffffffffffffffffffffffffffffffff1673ffffffffffffffffffffffffffffffffffffffff168173ffffffffffffffffffffffffffffffffffffffff161415610c44576001600085815481101515610bab57fe5b906000526020600020906009020160080160006101000a81548160ff02191690831515021790555086600085815481101515610be357fe5b9060005260206000209060090201600701819055503373ffffffffffffffffffffffffffffffffffffffff167f25f6f85ad09fbc0d95645779fae8509f8ce29d67febb202251f1360f4a2dfd2160405160405180910390a260019550610c8f565b60008085815481101515610c5457fe5b906000526020600020906009020160080160006101000a81548160ff02191690831515021790555060009550610c8f565b60009550610c8f565b5b50505050509695505050505050565b6000806000809150600080549050821015610d5b57600082815481101515610cc257fe5b906000526020600020906009020160000160009054906101000a900473ffffffffffffffffffffffffffffffffffffffff1673ffffffffffffffffffffffffffffffffffffffff168473ffffffffffffffffffffffffffffffffffffffff161415610d5257819050600081815481101515610d3957fe5b9060005260206000209060090201600201549250610d5c565b60009250610d5c565b5b5050919050565b6000806000809150600080549050821015610e2057600082815481101515610d8757fe5b906000526020600020906009020160000160009054906101000a900473ffffffffffffffffffffffffffffffffffffffff1673ffffffffffffffffffffffffffffffffffffffff168473ffffffffffffffffffffffffffffffffffffffff161415610e1757819050600081815481101515610dfe57fe5b9060005260206000209060090201600701549250610e21565b60009250610e21565b5b5050919050565b600c5481565b600d60009054906101000a900473ffffffffffffffffffffffffffffffffffffffff1681565b600b60009054906101000a900473ffffffffffffffffffffffffffffffffffffffff1681565b600033600260000160006101000a81548173ffffffffffffffffffffffffffffffffffffffff021916908373ffffffffffffffffffffffffffffffffffffffff16021790555083600260010181905550846002800181905550826002600301819055508167ffffffffffffffff166002600401819055506000600260080160006101000a81548160ff02191690831515021790555060006002908060018154018082558091505090600182039060005260206000209060090201600090919290919091506000820160009054906101000a900473ffffffffffffffffffffffffffffffffffffffff168160000160006101000a81548173ffffffffffffffffffffffffffffffffffffffff021916908373ffffffffffffffffffffffffffffffffffffffff160217905550600182015481600101556002820154816002015560038201548160030155600482015481600401556005820154816005015560068201548160060155600782015481600701556008820160009054906101000a900460ff168160080160006101000a81548160ff0219169083151502179055505050503373ffffffffffffffffffffffffffffffffffffffff167f639dd5feba8562d7771428ce365f37c1e49193a677125223c9ddb60a44fc8b9260405160405180910390a2600260000160009054906101000a900473ffffffffffffffffffffffffffffffffffffffff169050949350505050565b6000600260000160009054906101000a900473ffffffffffffffffffffffffffffffffffffffff16905090565b60008080549050905090565b6001818154811015156110d657fe5b90600052602060002090600902016000915090508060000160009054906101000a900473ffffffffffffffffffffffffffffffffffffffff16908060010154908060020154908060030154908060040154908060050154908060060154908060070154908060080160009054906101000a900460ff16905089565b600080600090506000805490508110156112bb578473ffffffffffffffffffffffffffffffffffffffff1660008281548110151561118b57fe5b906000526020600020906009020160000160009054906101000a900473ffffffffffffffffffffffffffffffffffffffff1673ffffffffffffffffffffffffffffffffffffffff16141561126f57836000828154811015156111e957fe5b9060005260206000209060090201600501819055508260008281548110151561120e57fe5b9060005260206000209060090201600601819055503373ffffffffffffffffffffffffffffffffffffffff167ffa9bb6e2e11b4e44ac23da53afdb1a31401d406b1fe23bf3ca720d9448cd211f60405160405180910390a2600191506112bc565b3373ffffffffffffffffffffffffffffffffffffffff167f434626492b6e7ba0553cc59802954bf8a9bd6216d20bdcdc85d60bfc79fb9db860405160405180910390a2600091506112bc565b5b5093925050505600a165627a7a72305820928b53247bfd9c72f2e5b9cf35d461061a197ae0e9fef974087bfba44bd342170029",
  "source": "pragma solidity ^0.4.23;\r\n\r\n\r\ncontract CST {\r\n\r\n    struct CSTask {\r\n        address taskID;\r\n        uint256 predicate;\r\n        uint256 hashvc;\r\n\tuint256 enct;\r\n\tuint256 reward;\r\n\tuint256 pkt;\r\n\tuint256 enck; \r\n\tuint256 encr;\r\n\tbool state;\r\n    }\r\n    \r\n    CSTask [] public task;\r\n    CSTask [] public tmp;\r\n    CSTask tmpTask;\r\n    address public SGX;\r\n    uint256 public random;\r\n    \r\n    address public owner;\r\n\r\n\r\n    event _uploadTask(address indexed requester);\r\n\t event _uploadPK(address indexed requester);\r\n    event _getTask(address indexed requester);\r\n\tevent _executeTask(address indexed requester);\r\n    event _noFind(address indexed requester);\r\n   \r\n\t\r\n    function CST() public{\r\n      owner = msg.sender;\r\n\t  //SGX = 0x6d1c59cbe0c142e02754b648d8d5e41a84848558;\r\n        SGX = 0x2fACF1A9A6B73630fD80153280085a1525f44b9E;\r\n    }\r\n\r\n    function() payable public {\r\n      // for now, have ticket purchasing only through functions\r\n      // for sanity purposes\r\n      revert();\r\n    }\r\n\r\n    \r\n    function uploadTask(uint256 hashVerifyCode, uint256 predicate, uint256 encTask, uint64 taskPrice) payable public returns (address) {\r\n      //require(msg.value == taskPrice);\r\n      tmpTask.taskID = msg.sender;\r\n      tmpTask.predicate = predicate;\r\n\t  tmpTask.hashvc = hashVerifyCode;\r\n\t  tmpTask.enct = encTask;\r\n\t  tmpTask.reward = taskPrice;\r\n\t  tmpTask.state = false;\r\n\t  task.push(tmpTask);\r\n      _uploadTask(msg.sender);\r\n      return tmpTask.taskID;\r\n    }\r\n\t\r\n\tfunction uploadPK(address taskID, uint256 publicKey, uint256 encKey) public returns (bool){\r\n          //require(msg.sender == taskID);\r\n\t  uint256 i;\r\n\t  for(i = 0; i < task.length; i++)\r\n         {\r\n            if(task[i].taskID == taskID)\r\n            {\r\n              task[i].pkt = publicKey;\r\n\t      task[i].enck = encKey;\r\n\t      _uploadPK(msg.sender);\r\n   \t      return true;\r\n              break;\r\n            }\r\n            else\r\n            {\r\n\t      _noFind(msg.sender);\r\n              return false;\r\n            }\r\n         }\r\n\t  \t  \r\n\r\n\t}\r\n\r\n\t\r\n    function getTask(uint256 attribute) public {\r\n      uint256 i = 0;\r\n\t  while(i < task.length){\r\n\t\tif(task[i].state == false && task[i].predicate == attribute)\r\n\t\t{\r\n\t\t\ttmp.push(task[i]);\r\n\t\t}\r\n\t  }      \r\n\r\n      _getTask(msg.sender);\r\n           \r\n    }\r\n\r\n    //function executeTask (address taskID, bytes32 hash, uint8 v, bytes32 r, bytes32 s, uint256 encResult) public returns (bool) {\r\n    function executeTask (address taskID, bytes32 hash, uint8 v, bytes32 r, bytes32 s, uint256 encResult) public returns(bool) {\r\n         uint256 i;\r\n         uint256 num;\r\n        bytes memory prefix = \"\\x19Ethereum Signed Message:\\n32\";\r\n        bytes32 prefixedHash = keccak256(prefix, hash);\r\n\t\t address recover = ecrecover(prefixedHash, v, r, s);\r\n\r\n         for(i = 0; i < task.length; i++)\r\n         {\r\n            if(taskID == task[i].taskID)\r\n            {\r\n              num = i;\r\n              if(recover == SGX)\r\n\t\t\t\t{\r\n\t\t\t\t\ttask[num].state = true;\r\n\t\t\t\t\ttask[num].encr = encResult;\r\n\t\t\t\t\t//msg.sender.transfer(task[num].reward);\r\n                    //msg.sender.transfer(1);\r\n                    _executeTask(msg.sender);\r\n\t\t\t\t\treturn true; \r\n\t\t\t\t}\r\n\t\t\t  else\r\n\t\t\t\t{\t\t\r\n\t\t\t\t\ttask[num].state = false;\r\n\t\t\t\t\treturn false;\r\n\t\t\t\t}         \r\n            }\r\n            else\r\n            {\r\n              return false;\r\n            }\r\n         }\r\n         \r\n       }\r\n\r\n\r\n    function getHC(address taskID) public view returns (uint256){\r\n\t     uint256 i;\r\n         uint256 num;\r\n\t\t for(i = 0; i < task.length; i++)\r\n         {\r\n            if(taskID == task[i].taskID)\r\n            {\r\n              num = i;\r\n              return task[num].hashvc;\t\t\t  \r\n            }\r\n            else\r\n            {\r\n              return 0;\r\n            }\r\n         }\r\n\t\t \r\n         \r\n    }\r\n\t\r\n\tfunction getResult(address taskID) public view returns (uint256){\r\n\t     uint256 i;\r\n         uint256 num;\r\n\t\t for(i = 0; i < task.length; i++)\r\n         {\r\n            if(taskID == task[i].taskID)\r\n            {\r\n              num = i;\r\n              return task[num].encr;\r\n            }\r\n            else\r\n            {\r\n              return 0;\r\n            }\r\n         }\r\n\t\t \r\n         \r\n    }\r\n\r\n    function getK(address taskID) public view returns (uint256){\r\n\t     uint256 i;\r\n         uint256 num;\r\n\t\t for(i = 0; i < task.length; i++)\r\n         {\r\n            if(taskID == task[i].taskID)\r\n            {\r\n              num = i;\r\n              return task[num].enck;\r\n            }\r\n            else\r\n            {\r\n              return 0;\r\n            }\r\n         }\r\n\t\t \r\n         \r\n    }\r\n    function getTmp() public view returns (address)\r\n    {\r\n         return tmpTask.taskID;\r\n    }\r\n    function getLength() public view returns (uint256)\r\n    {\r\n  \treturn task.length;\r\n     }\r\n \r\n\r\n}\r\n\r\n\r\n",
  "sourcePath": "E:\\Smart-Contract-on-CST\\truffle_crowdsourcing\\contracts\\CST.sol",
  "compiler": {
    "name": "solc",
    "version": "0.4.23+commit.124ca40d.Emscripten.clang"
  },
  "schemaVersion": "3.4.4",
  "updatedAt": "2022-03-28T08:29:49.391Z",
  "devdoc": {
    "methods": {}
  },
  "userdoc": {
    "methods": {}
  }
}